{
  "_format": "hh-sol-artifact-1",
  "contractName": "Upload",
  "sourceName": "contracts/Upload.sol",
  "abi": [
    {
      "inputs": [
        {
          "internalType": "address",
          "name": "_user",
          "type": "address"
        },
        {
          "internalType": "string",
          "name": "url",
          "type": "string"
        }
      ],
      "name": "add",
      "outputs": [],
      "stateMutability": "nonpayable",
      "type": "function"
    },
    {
      "inputs": [
        {
          "internalType": "string",
          "name": "folderName",
          "type": "string"
        },
        {
          "internalType": "string",
          "name": "url",
          "type": "string"
        }
      ],
      "name": "addFileToFolder",
      "outputs": [],
      "stateMutability": "nonpayable",
      "type": "function"
    },
    {
      "inputs": [
        {
          "internalType": "address",
          "name": "user",
          "type": "address"
        }
      ],
      "name": "allow",
      "outputs": [],
      "stateMutability": "nonpayable",
      "type": "function"
    },
    {
      "inputs": [
        {
          "internalType": "address",
          "name": "user",
          "type": "address"
        },
        {
          "internalType": "string",
          "name": "folderName",
          "type": "string"
        }
      ],
      "name": "allowFolderAccess",
      "outputs": [],
      "stateMutability": "nonpayable",
      "type": "function"
    },
    {
      "inputs": [
        {
          "internalType": "address",
          "name": "user",
          "type": "address"
        }
      ],
      "name": "disallow",
      "outputs": [],
      "stateMutability": "nonpayable",
      "type": "function"
    },
    {
      "inputs": [
        {
          "internalType": "address",
          "name": "user",
          "type": "address"
        },
        {
          "internalType": "string",
          "name": "folderName",
          "type": "string"
        }
      ],
      "name": "disallowAccessToFolder",
      "outputs": [],
      "stateMutability": "nonpayable",
      "type": "function"
    },
    {
      "inputs": [
        {
          "internalType": "address",
          "name": "_user",
          "type": "address"
        }
      ],
      "name": "display",
      "outputs": [
        {
          "components": [
            {
              "internalType": "string",
              "name": "folderName",
              "type": "string"
            },
            {
              "internalType": "string[]",
              "name": "files",
              "type": "string[]"
            }
          ],
          "internalType": "struct Upload.Folder[]",
          "name": "",
          "type": "tuple[]"
        }
      ],
      "stateMutability": "view",
      "type": "function"
    },
    {
      "inputs": [
        {
          "internalType": "address",
          "name": "_user",
          "type": "address"
        },
        {
          "internalType": "string",
          "name": "folderName",
          "type": "string"
        }
      ],
      "name": "displayFolderFiles",
      "outputs": [
        {
          "internalType": "string[]",
          "name": "",
          "type": "string[]"
        }
      ],
      "stateMutability": "view",
      "type": "function"
    },
    {
      "inputs": [
        {
          "internalType": "address",
          "name": "_user",
          "type": "address"
        }
      ],
      "name": "getAllFolders",
      "outputs": [
        {
          "components": [
            {
              "internalType": "string",
              "name": "folderName",
              "type": "string"
            },
            {
              "internalType": "string[]",
              "name": "files",
              "type": "string[]"
            }
          ],
          "internalType": "struct Upload.Folder[]",
          "name": "",
          "type": "tuple[]"
        }
      ],
      "stateMutability": "view",
      "type": "function"
    },
    {
      "inputs": [
        {
          "internalType": "address",
          "name": "owner",
          "type": "address"
        },
        {
          "internalType": "address",
          "name": "requester",
          "type": "address"
        }
      ],
      "name": "getSharedFolders",
      "outputs": [
        {
          "components": [
            {
              "internalType": "string",
              "name": "folderName",
              "type": "string"
            },
            {
              "internalType": "string[]",
              "name": "files",
              "type": "string[]"
            }
          ],
          "internalType": "struct Upload.Folder[]",
          "name": "",
          "type": "tuple[]"
        }
      ],
      "stateMutability": "view",
      "type": "function"
    },
    {
      "inputs": [],
      "name": "shareAccess",
      "outputs": [
        {
          "components": [
            {
              "internalType": "address",
              "name": "user",
              "type": "address"
            },
            {
              "internalType": "bool",
              "name": "access",
              "type": "bool"
            }
          ],
          "internalType": "struct Upload.Access[]",
          "name": "",
          "type": "tuple[]"
        }
      ],
      "stateMutability": "view",
      "type": "function"
    }
  ],
  "bytecode": "0x608060405234801561001057600080fd5b50612980806100206000396000f3fe608060405234801561001057600080fd5b50600436106100a95760003560e01c8063a58fcc0211610071578063a58fcc0214610162578063a9ed9cb81461017e578063b096153d1461019a578063bc8bef81146101ca578063eb39113f146101e8578063ff9913e814610218576100a9565b8063091ef1c7146100ae5780632c06b585146100de57806336d6da55146100fa578063702952b6146101165780639a4b6de614610146575b600080fd5b6100c860048036038101906100c39190611c46565b610234565b6040516100d59190611de3565b60405180910390f35b6100f860048036038101906100f39190611c46565b610534565b005b610114600480360381019061010f9190611c46565b6105e9565b005b610130600480360381019061012b9190611e05565b61065f565b60405161013d9190611fbe565b60405180910390f35b610160600480360381019061015b9190611fe0565b6108d5565b005b61017c60048036038101906101779190611c46565b610a91565b005b61019860048036038101906101939190611e05565b610b45565b005b6101b460048036038101906101af9190612058565b610d61565b6040516101c19190611fbe565b60405180910390f35b6101d2611223565b6040516101df91906121a0565b60405180910390f35b61020260048036038101906101fd9190611e05565b61132c565b60405161020f9190611fbe565b60405180910390f35b610232600480360381019061022d9190611e05565b611633565b005b60603373ffffffffffffffffffffffffffffffffffffffff168373ffffffffffffffffffffffffffffffffffffffff1614806103125750600160008473ffffffffffffffffffffffffffffffffffffffff1673ffffffffffffffffffffffffffffffffffffffff16815260200190815260200160002060003373ffffffffffffffffffffffffffffffffffffffff1673ffffffffffffffffffffffffffffffffffffffff168152602001908152602001600020826040516102f591906121fe565b908152602001604051809103902060009054906101000a900460ff165b610351576040517f08c379a000000000000000000000000000000000000000000000000000000000815260040161034890612272565b60405180910390fd5b60008060008573ffffffffffffffffffffffffffffffffffffffff1673ffffffffffffffffffffffffffffffffffffffff168152602001908152602001600020905060005b81805490508110156104f25783805190602001208282815481106103bd576103bc612292565b5b90600052602060002090600202016000016040516103db91906123c4565b6040518091039020036104e5578181815481106103fb576103fa612292565b5b9060005260206000209060020201600101805480602002602001604051908101604052809291908181526020016000905b828210156104d857838290600052602060002001805461044b906122f0565b80601f0160208091040260200160405190810160405280929190818152602001828054610477906122f0565b80156104c45780601f10610499576101008083540402835291602001916104c4565b820191906000526020600020905b8154815290600101906020018083116104a757829003601f168201915b50505050508152602001906001019061042c565b505050509250505061052e565b8080600101915050610396565b506040517f08c379a000000000000000000000000000000000000000000000000000000000815260040161052590612427565b60405180910390fd5b92915050565b6000600160003373ffffffffffffffffffffffffffffffffffffffff1673ffffffffffffffffffffffffffffffffffffffff16815260200190815260200160002060008473ffffffffffffffffffffffffffffffffffffffff1673ffffffffffffffffffffffffffffffffffffffff168152602001908152602001600020826040516105c091906121fe565b908152602001604051809103902060006101000a81548160ff0219169083151502179055505050565b600260008373ffffffffffffffffffffffffffffffffffffffff1673ffffffffffffffffffffffffffffffffffffffff1681526020019081526020016000208190806001815401808255809150506001900390600052602060002001600090919091909150908161065a91906125fd565b505050565b60603373ffffffffffffffffffffffffffffffffffffffff168273ffffffffffffffffffffffffffffffffffffffff16146106cf576040517f08c379a00000000000000000000000000000000000000000000000000000000081526004016106c69061271b565b60405180910390fd5b6000808373ffffffffffffffffffffffffffffffffffffffff1673ffffffffffffffffffffffffffffffffffffffff168152602001908152602001600020805480602002602001604051908101604052809291908181526020016000905b828210156108ca5783829060005260206000209060020201604051806040016040529081600082018054610760906122f0565b80601f016020809104026020016040519081016040528092919081815260200182805461078c906122f0565b80156107d95780601f106107ae576101008083540402835291602001916107d9565b820191906000526020600020905b8154815290600101906020018083116107bc57829003601f168201915b5050505050815260200160018201805480602002602001604051908101604052809291908181526020016000905b828210156108b3578382906000526020600020018054610826906122f0565b80601f0160208091040260200160405190810160405280929190818152602001828054610852906122f0565b801561089f5780601f106108745761010080835404028352916020019161089f565b820191906000526020600020905b81548152906001019060200180831161088257829003601f168201915b505050505081526020019060010190610807565b50505050815250508152602001906001019061072d565b505050509050919050565b60008060003373ffffffffffffffffffffffffffffffffffffffff1673ffffffffffffffffffffffffffffffffffffffff16815260200190815260200160002090506000805b82805490508110156109da57848051906020012083828154811061094257610941612292565b5b906000526020600020906002020160000160405161096091906123c4565b6040518091039020036109cd578281815481106109805761097f612292565b5b9060005260206000209060020201600101849080600181540180825580915050600190039060005260206000200160009091909190915090816109c391906125fd565b50600191506109da565b808060010191505061091b565b5080610a8b5760008060003373ffffffffffffffffffffffffffffffffffffffff1673ffffffffffffffffffffffffffffffffffffffff168152602001908152602001600020600181600181540180825580915050039060005260206000209060020201905084816000019081610a5191906125fd565b508060010184908060018154018082558091505060019003906000526020600020016000909190919091509081610a8891906125fd565b50505b50505050565b60018060003373ffffffffffffffffffffffffffffffffffffffff1673ffffffffffffffffffffffffffffffffffffffff16815260200190815260200160002060008473ffffffffffffffffffffffffffffffffffffffff1673ffffffffffffffffffffffffffffffffffffffff16815260200190815260200160002082604051610b1c91906121fe565b908152602001604051809103902060006101000a81548160ff0219169083151502179055505050565b6000600360003373ffffffffffffffffffffffffffffffffffffffff1673ffffffffffffffffffffffffffffffffffffffff16815260200190815260200160002060008373ffffffffffffffffffffffffffffffffffffffff1673ffffffffffffffffffffffffffffffffffffffff16815260200190815260200160002060006101000a81548160ff02191690831515021790555060005b600460003373ffffffffffffffffffffffffffffffffffffffff1673ffffffffffffffffffffffffffffffffffffffff16815260200190815260200160002080549050811015610d5d578173ffffffffffffffffffffffffffffffffffffffff16600460003373ffffffffffffffffffffffffffffffffffffffff1673ffffffffffffffffffffffffffffffffffffffff1681526020019081526020016000208281548110610c8f57610c8e612292565b5b9060005260206000200160000160009054906101000a900473ffffffffffffffffffffffffffffffffffffffff1673ffffffffffffffffffffffffffffffffffffffff1603610d50576000600460003373ffffffffffffffffffffffffffffffffffffffff1673ffffffffffffffffffffffffffffffffffffffff1681526020019081526020016000208281548110610d2b57610d2a612292565b5b9060005260206000200160000160146101000a81548160ff0219169083151502179055505b8080600101915050610bdd565b5050565b60608173ffffffffffffffffffffffffffffffffffffffff168373ffffffffffffffffffffffffffffffffffffffff1603610dd1576040517f08c379a0000000000000000000000000000000000000000000000000000000008152600401610dc8906127ad565b60405180910390fd5b60008060008573ffffffffffffffffffffffffffffffffffffffff1673ffffffffffffffffffffffffffffffffffffffff16815260200190815260200160002090506000805b8280549050811015610f0d57600160008773ffffffffffffffffffffffffffffffffffffffff1673ffffffffffffffffffffffffffffffffffffffff16815260200190815260200160002060008673ffffffffffffffffffffffffffffffffffffffff1673ffffffffffffffffffffffffffffffffffffffff168152602001908152602001600020838281548110610eb257610eb1612292565b5b9060005260206000209060020201600001604051610ed09190612850565b908152602001604051809103902060009054906101000a900460ff1615610f00578180610efc90612896565b9250505b8080600101915050610e17565b5060008167ffffffffffffffff811115610f2a57610f29611b1b565b5b604051908082528060200260200182016040528015610f6357816020015b610f50611a74565b815260200190600190039081610f485790505b5090506000805b848054905081101561121557600160008973ffffffffffffffffffffffffffffffffffffffff1673ffffffffffffffffffffffffffffffffffffffff16815260200190815260200160002060008873ffffffffffffffffffffffffffffffffffffffff1673ffffffffffffffffffffffffffffffffffffffff16815260200190815260200160002085828154811061100557611004612292565b5b90600052602060002090600202016000016040516110239190612850565b908152602001604051809103902060009054906101000a900460ff16156112085784818154811061105757611056612292565b5b9060005260206000209060020201604051806040016040529081600082018054611080906122f0565b80601f01602080910402602001604051908101604052809291908181526020018280546110ac906122f0565b80156110f95780601f106110ce576101008083540402835291602001916110f9565b820191906000526020600020905b8154815290600101906020018083116110dc57829003601f168201915b5050505050815260200160018201805480602002602001604051908101604052809291908181526020016000905b828210156111d3578382906000526020600020018054611146906122f0565b80601f0160208091040260200160405190810160405280929190818152602001828054611172906122f0565b80156111bf5780601f10611194576101008083540402835291602001916111bf565b820191906000526020600020905b8154815290600101906020018083116111a257829003601f168201915b505050505081526020019060010190611127565b50505050815250508383815181106111ee576111ed612292565b5b6020026020010181905250818061120490612896565b9250505b8080600101915050610f6a565b508194505050505092915050565b6060600460003373ffffffffffffffffffffffffffffffffffffffff1673ffffffffffffffffffffffffffffffffffffffff168152602001908152602001600020805480602002602001604051908101604052809291908181526020016000905b82821015611323578382906000526020600020016040518060400160405290816000820160009054906101000a900473ffffffffffffffffffffffffffffffffffffffff1673ffffffffffffffffffffffffffffffffffffffff1673ffffffffffffffffffffffffffffffffffffffff1681526020016000820160149054906101000a900460ff16151515158152505081526020019060010190611284565b50505050905090565b60603373ffffffffffffffffffffffffffffffffffffffff168273ffffffffffffffffffffffffffffffffffffffff1614806113ee5750600360008373ffffffffffffffffffffffffffffffffffffffff1673ffffffffffffffffffffffffffffffffffffffff16815260200190815260200160002060003373ffffffffffffffffffffffffffffffffffffffff1673ffffffffffffffffffffffffffffffffffffffff16815260200190815260200160002060009054906101000a900460ff165b61142d576040517f08c379a00000000000000000000000000000000000000000000000000000000081526004016114249061292a565b60405180910390fd5b6000808373ffffffffffffffffffffffffffffffffffffffff1673ffffffffffffffffffffffffffffffffffffffff168152602001908152602001600020805480602002602001604051908101604052809291908181526020016000905b8282101561162857838290600052602060002090600202016040518060400160405290816000820180546114be906122f0565b80601f01602080910402602001604051908101604052809291908181526020018280546114ea906122f0565b80156115375780601f1061150c57610100808354040283529160200191611537565b820191906000526020600020905b81548152906001019060200180831161151a57829003601f168201915b5050505050815260200160018201805480602002602001604051908101604052809291908181526020016000905b82821015611611578382906000526020600020018054611584906122f0565b80601f01602080910402602001604051908101604052809291908181526020018280546115b0906122f0565b80156115fd5780601f106115d2576101008083540402835291602001916115fd565b820191906000526020600020905b8154815290600101906020018083116115e057829003601f168201915b505050505081526020019060010190611565565b50505050815250508152602001906001019061148b565b505050509050919050565b6001600360003373ffffffffffffffffffffffffffffffffffffffff1673ffffffffffffffffffffffffffffffffffffffff16815260200190815260200160002060008373ffffffffffffffffffffffffffffffffffffffff1673ffffffffffffffffffffffffffffffffffffffff16815260200190815260200160002060006101000a81548160ff021916908315150217905550600560003373ffffffffffffffffffffffffffffffffffffffff1673ffffffffffffffffffffffffffffffffffffffff16815260200190815260200160002060008273ffffffffffffffffffffffffffffffffffffffff1673ffffffffffffffffffffffffffffffffffffffff16815260200190815260200160002060009054906101000a900460ff16156118e05760005b600460003373ffffffffffffffffffffffffffffffffffffffff1673ffffffffffffffffffffffffffffffffffffffff168152602001908152602001600020805490508110156118da578173ffffffffffffffffffffffffffffffffffffffff16600460003373ffffffffffffffffffffffffffffffffffffffff1673ffffffffffffffffffffffffffffffffffffffff168152602001908152602001600020828154811061180c5761180b612292565b5b9060005260206000200160000160009054906101000a900473ffffffffffffffffffffffffffffffffffffffff1673ffffffffffffffffffffffffffffffffffffffff16036118cd576001600460003373ffffffffffffffffffffffffffffffffffffffff1673ffffffffffffffffffffffffffffffffffffffff16815260200190815260200160002082815481106118a8576118a7612292565b5b9060005260206000200160000160146101000a81548160ff0219169083151502179055505b808060010191505061175a565b50611a71565b600460003373ffffffffffffffffffffffffffffffffffffffff1673ffffffffffffffffffffffffffffffffffffffff16815260200190815260200160002060405180604001604052808373ffffffffffffffffffffffffffffffffffffffff168152602001600115158152509080600181540180825580915050600190039060005260206000200160009091909190915060008201518160000160006101000a81548173ffffffffffffffffffffffffffffffffffffffff021916908373ffffffffffffffffffffffffffffffffffffffff16021790555060208201518160000160146101000a81548160ff02191690831515021790555050506001600560003373ffffffffffffffffffffffffffffffffffffffff1673ffffffffffffffffffffffffffffffffffffffff16815260200190815260200160002060008373ffffffffffffffffffffffffffffffffffffffff1673ffffffffffffffffffffffffffffffffffffffff16815260200190815260200160002060006101000a81548160ff0219169083151502179055505b50565b604051806040016040528060608152602001606081525090565b6000604051905090565b600080fd5b600080fd5b600073ffffffffffffffffffffffffffffffffffffffff82169050919050565b6000611acd82611aa2565b9050919050565b611add81611ac2565b8114611ae857600080fd5b50565b600081359050611afa81611ad4565b92915050565b600080fd5b600080fd5b6000601f19601f8301169050919050565b7f4e487b7100000000000000000000000000000000000000000000000000000000600052604160045260246000fd5b611b5382611b0a565b810181811067ffffffffffffffff82111715611b7257611b71611b1b565b5b80604052505050565b6000611b85611a8e565b9050611b918282611b4a565b919050565b600067ffffffffffffffff821115611bb157611bb0611b1b565b5b611bba82611b0a565b9050602081019050919050565b82818337600083830152505050565b6000611be9611be484611b96565b611b7b565b905082815260208101848484011115611c0557611c04611b05565b5b611c10848285611bc7565b509392505050565b600082601f830112611c2d57611c2c611b00565b5b8135611c3d848260208601611bd6565b91505092915050565b60008060408385031215611c5d57611c5c611a98565b5b6000611c6b85828601611aeb565b925050602083013567ffffffffffffffff811115611c8c57611c8b611a9d565b5b611c9885828601611c18565b9150509250929050565b600081519050919050565b600082825260208201905092915050565b6000819050602082019050919050565b600081519050919050565b600082825260208201905092915050565b60005b83811015611d08578082015181840152602081019050611ced565b60008484015250505050565b6000611d1f82611cce565b611d298185611cd9565b9350611d39818560208601611cea565b611d4281611b0a565b840191505092915050565b6000611d598383611d14565b905092915050565b6000602082019050919050565b6000611d7982611ca2565b611d838185611cad565b935083602082028501611d9585611cbe565b8060005b85811015611dd15784840389528151611db28582611d4d565b9450611dbd83611d61565b925060208a01995050600181019050611d99565b50829750879550505050505092915050565b60006020820190508181036000830152611dfd8184611d6e565b905092915050565b600060208284031215611e1b57611e1a611a98565b5b6000611e2984828501611aeb565b91505092915050565b600081519050919050565b600082825260208201905092915050565b6000819050602082019050919050565b600082825260208201905092915050565b6000611e7a82611ca2565b611e848185611e5e565b935083602082028501611e9685611cbe565b8060005b85811015611ed25784840389528151611eb38582611d4d565b9450611ebe83611d61565b925060208a01995050600181019050611e9a565b50829750879550505050505092915050565b60006040830160008301518482036000860152611f018282611d14565b91505060208301518482036020860152611f1b8282611e6f565b9150508091505092915050565b6000611f348383611ee4565b905092915050565b6000602082019050919050565b6000611f5482611e32565b611f5e8185611e3d565b935083602082028501611f7085611e4e565b8060005b85811015611fac5784840389528151611f8d8582611f28565b9450611f9883611f3c565b925060208a01995050600181019050611f74565b50829750879550505050505092915050565b60006020820190508181036000830152611fd88184611f49565b905092915050565b60008060408385031215611ff757611ff6611a98565b5b600083013567ffffffffffffffff81111561201557612014611a9d565b5b61202185828601611c18565b925050602083013567ffffffffffffffff81111561204257612041611a9d565b5b61204e85828601611c18565b9150509250929050565b6000806040838503121561206f5761206e611a98565b5b600061207d85828601611aeb565b925050602061208e85828601611aeb565b9150509250929050565b600081519050919050565b600082825260208201905092915050565b6000819050602082019050919050565b6120cd81611ac2565b82525050565b60008115159050919050565b6120e8816120d3565b82525050565b60408201600082015161210460008501826120c4565b50602082015161211760208501826120df565b50505050565b600061212983836120ee565b60408301905092915050565b6000602082019050919050565b600061214d82612098565b61215781856120a3565b9350612162836120b4565b8060005b8381101561219357815161217a888261211d565b975061218583612135565b925050600181019050612166565b5085935050505092915050565b600060208201905081810360008301526121ba8184612142565b905092915050565b600081905092915050565b60006121d882611cce565b6121e281856121c2565b93506121f2818560208601611cea565b80840191505092915050565b600061220a82846121cd565b915081905092915050565b600082825260208201905092915050565b7f796f7520646f206e6f7420686176652061636365737300000000000000000000600082015250565b600061225c601683612215565b915061226782612226565b602082019050919050565b6000602082019050818103600083015261228b8161224f565b9050919050565b7f4e487b7100000000000000000000000000000000000000000000000000000000600052603260045260246000fd5b7f4e487b7100000000000000000000000000000000000000000000000000000000600052602260045260246000fd5b6000600282049050600182168061230857607f821691505b60208210810361231b5761231a6122c1565b5b50919050565b600081905092915050565b60008190508160005260206000209050919050565b6000815461234e816122f0565b6123588186612321565b945060018216600081146123735760018114612388576123bb565b60ff19831686528115158202860193506123bb565b6123918561232c565b60005b838110156123b357815481890152600182019150602081019050612394565b838801955050505b50505092915050565b60006123d08284612341565b915081905092915050565b7f466f6c646572206e6f7420666f756e6400000000000000000000000000000000600082015250565b6000612411601083612215565b915061241c826123db565b602082019050919050565b6000602082019050818103600083015261244081612404565b9050919050565b60008190508160005260206000209050919050565b60006020601f8301049050919050565b600082821b905092915050565b6000600883026124a97fffffffffffffffffffffffffffffffffffffffffffffffffffffffffffffffff8261246c565b6124b3868361246c565b95508019841693508086168417925050509392505050565b6000819050919050565b6000819050919050565b60006124fa6124f56124f0846124cb565b6124d5565b6124cb565b9050919050565b6000819050919050565b612514836124df565b61252861252082612501565b848454612479565b825550505050565b600090565b61253d612530565b61254881848461250b565b505050565b5b8181101561256c57612561600082612535565b60018101905061254e565b5050565b601f8211156125b15761258281612447565b61258b8461245c565b8101602085101561259a578190505b6125ae6125a68561245c565b83018261254d565b50505b505050565b600082821c905092915050565b60006125d4600019846008026125b6565b1980831691505092915050565b60006125ed83836125c3565b9150826002028217905092915050565b61260682611cce565b67ffffffffffffffff81111561261f5761261e611b1b565b5b61262982546122f0565b612634828285612570565b600060209050601f8311600181146126675760008415612655578287015190505b61265f85826125e1565b8655506126c7565b601f19841661267586612447565b60005b8281101561269d57848901518255600182019150602085019450602081019050612678565b868310156126ba57848901516126b6601f8916826125c3565b8355505b6001600288020188555050505b505050505050565b7f796f7520646f20206e6f74206861766520616363657373000000000000000000600082015250565b6000612705601783612215565b9150612710826126cf565b602082019050919050565b60006020820190508181036000830152612734816126f8565b9050919050565b7f4f776e657220616e64207265717565737465722063616e6e6f7420626520746860008201527f652073616d650000000000000000000000000000000000000000000000000000602082015250565b6000612797602683612215565b91506127a28261273b565b604082019050919050565b600060208201905081810360008301526127c68161278a565b9050919050565b600081546127da816122f0565b6127e481866121c2565b945060018216600081146127ff576001811461281457612847565b60ff1983168652811515820286019350612847565b61281d85612447565b60005b8381101561283f57815481890152600182019150602081019050612820565b838801955050505b50505092915050565b600061285c82846127cd565b915081905092915050565b7f4e487b7100000000000000000000000000000000000000000000000000000000600052601160045260246000fd5b60006128a1826124cb565b91507fffffffffffffffffffffffffffffffffffffffffffffffffffffffffffffffff82036128d3576128d2612867565b5b600182019050919050565b7f596f7520646f206e6f7420686176652061636365737300000000000000000000600082015250565b6000612914601683612215565b915061291f826128de565b602082019050919050565b6000602082019050818103600083015261294381612907565b905091905056fea2646970667358221220caaaf8245a860ff9553bcca8baa2f4b1614d03f20873287e44c92c6f4b4d2d4c64736f6c63430008180033",
  "linkReferences": {},
  "deployedLinkReferences": {}
}